{
  "address": "0xFa719161E84EC091b8723856d1c8496bc2545Bf0",
  "abi": [
    {
      "inputs": [
        {
          "internalType": "address",
          "name": "_priceFeed",
          "type": "address"
        }
      ],
      "stateMutability": "nonpayable",
      "type": "constructor"
    },
    {
      "inputs": [
        {
          "internalType": "uint256",
          "name": "ETHAmount",
          "type": "uint256"
        }
      ],
      "name": "getConversionRate",
      "outputs": [
        {
          "internalType": "uint256",
          "name": "",
          "type": "uint256"
        }
      ],
      "stateMutability": "view",
      "type": "function"
    },
    {
      "inputs": [],
      "name": "getPrice",
      "outputs": [
        {
          "internalType": "uint256",
          "name": "",
          "type": "uint256"
        }
      ],
      "stateMutability": "view",
      "type": "function"
    },
    {
      "inputs": [],
      "name": "priceFeed",
      "outputs": [
        {
          "internalType": "contract AggregatorV3Interface",
          "name": "",
          "type": "address"
        }
      ],
      "stateMutability": "view",
      "type": "function"
    }
  ],
  "transactionHash": "0x19b2992c4bb858f3c220bfd7a3f32a9a65db6a35ca49841d0571c0b4809bc4fc",
  "args": [
    "0xd0D5e3DB44DE05E9F294BB0a3bEEaF030DE24Ada"
  ],
  "numDeployments": 2,
  "solcInputHash": "a49f62482cc4cc2d6f6a790939f9a98d",
  "bytecode": "0x608060405234801561001057600080fd5b506040516107353803806107358339818101604052810190610032919061008d565b806000806101000a81548173ffffffffffffffffffffffffffffffffffffffff021916908373ffffffffffffffffffffffffffffffffffffffff16021790555050610108565b600081519050610087816100f1565b92915050565b6000602082840312156100a3576100a26100ec565b5b60006100b184828501610078565b91505092915050565b60006100c5826100cc565b9050919050565b600073ffffffffffffffffffffffffffffffffffffffff82169050919050565b600080fd5b6100fa816100ba565b811461010557600080fd5b50565b61061e806101176000396000f3fe608060405234801561001057600080fd5b50600436106100415760003560e01c80636e5b6b2814610046578063741bef1a1461007657806398d5fdca14610094575b600080fd5b610060600480360381019061005b9190610222565b6100b2565b60405161006d9190610303565b60405180910390f35b61007e6100ec565b60405161008b91906102e8565b60405180910390f35b61009c610110565b6040516100a99190610303565b60405180910390f35b6000806100bd610110565b90506000670de0b6b3a764000084836100d69190610466565b6100e0919061031e565b90508092505050919050565b60008054906101000a900473ffffffffffffffffffffffffffffffffffffffff1681565b60008060008054906101000a900473ffffffffffffffffffffffffffffffffffffffff1673ffffffffffffffffffffffffffffffffffffffff1663feaf968c6040518163ffffffff1660e01b815260040160a06040518083038186803b15801561017957600080fd5b505afa15801561018d573d6000803e3d6000fd5b505050506040513d601f19601f820116820180604052508101906101b1919061024f565b5050509150506402540be400816101c8919061034f565b91505090565b6000815190506101dd816105a3565b92915050565b6000813590506101f2816105ba565b92915050565b600081519050610207816105ba565b92915050565b60008151905061021c816105d1565b92915050565b6000602082840312156102385761023761059e565b5b6000610246848285016101e3565b91505092915050565b600080600080600060a0868803121561026b5761026a61059e565b5b60006102798882890161020d565b955050602061028a888289016101ce565b945050604061029b888289016101f8565b93505060606102ac888289016101f8565b92505060806102bd8882890161020d565b9150509295509295909350565b6102d38161050a565b82525050565b6102e2816104ea565b82525050565b60006020820190506102fd60008301846102ca565b92915050565b600060208201905061031860008301846102d9565b92915050565b6000610329826104ea565b9150610334836104ea565b9250826103445761034361056f565b5b828204905092915050565b600061035a826104c0565b9150610365836104c0565b9250827f7fffffffffffffffffffffffffffffffffffffffffffffffffffffffffffffff04821160008413600084131616156103a4576103a3610540565b5b817f800000000000000000000000000000000000000000000000000000000000000005831260008412600084131616156103e1576103e0610540565b5b827f8000000000000000000000000000000000000000000000000000000000000000058212600084136000841216161561041e5761041d610540565b5b827f7fffffffffffffffffffffffffffffffffffffffffffffffffffffffffffffff058212600084126000841216161561045b5761045a610540565b5b828202905092915050565b6000610471826104ea565b915061047c836104ea565b9250817fffffffffffffffffffffffffffffffffffffffffffffffffffffffffffffffff04831182151516156104b5576104b4610540565b5b828202905092915050565b6000819050919050565b600073ffffffffffffffffffffffffffffffffffffffff82169050919050565b6000819050919050565b600069ffffffffffffffffffff82169050919050565b60006105158261051c565b9050919050565b60006105278261052e565b9050919050565b6000610539826104ca565b9050919050565b7f4e487b7100000000000000000000000000000000000000000000000000000000600052601160045260246000fd5b7f4e487b7100000000000000000000000000000000000000000000000000000000600052601260045260246000fd5b600080fd5b6105ac816104c0565b81146105b757600080fd5b50565b6105c3816104ea565b81146105ce57600080fd5b50565b6105da816104f4565b81146105e557600080fd5b5056fea26469706673582212208ac25eee7ccd6bc78b111daf620f3959881f551e823c55c8743b1d0f0a954eca64736f6c63430008070033",
  "devdoc": {
    "kind": "dev",
    "methods": {},
    "version": 1
  },
  "userdoc": {
    "kind": "user",
    "methods": {},
    "version": 1
  },
  "storageLayout": {
    "storage": [
      {
        "astId": 64,
        "contract": "contracts/PriceConverter.sol:PriceConverter",
        "label": "priceFeed",
        "offset": 0,
        "slot": "0",
        "type": "t_contract(AggregatorV3Interface)45"
      }
    ],
    "types": {
      "t_contract(AggregatorV3Interface)45": {
        "encoding": "inplace",
        "label": "contract AggregatorV3Interface",
        "numberOfBytes": "20"
      }
    }
  }
}