{
  "address": "0xA52A4f532A5f187CC716216876EACdad3a1cC6a9",
  "abi": [
    {
      "inputs": [
        {
          "internalType": "address",
          "name": "_vrfCoordinator",
          "type": "address"
        },
        {
          "internalType": "bytes32",
          "name": "_keyHash",
          "type": "bytes32"
        },
        {
          "internalType": "uint64",
          "name": "_subscriptionId",
          "type": "uint64"
        }
      ],
      "stateMutability": "nonpayable",
      "type": "constructor"
    },
    {
      "inputs": [
        {
          "internalType": "address",
          "name": "have",
          "type": "address"
        },
        {
          "internalType": "address",
          "name": "want",
          "type": "address"
        }
      ],
      "name": "OnlyCoordinatorCanFulfill",
      "type": "error"
    },
    {
      "inputs": [],
      "name": "RandomNumberGenerator__CallFromUnapprovedContract",
      "type": "error"
    },
    {
      "anonymous": false,
      "inputs": [
        {
          "indexed": true,
          "internalType": "address",
          "name": "previousOwner",
          "type": "address"
        },
        {
          "indexed": true,
          "internalType": "address",
          "name": "newOwner",
          "type": "address"
        }
      ],
      "name": "OwnershipTransferred",
      "type": "event"
    },
    {
      "anonymous": false,
      "inputs": [
        {
          "indexed": false,
          "internalType": "uint256",
          "name": "requestId",
          "type": "uint256"
        }
      ],
      "name": "RandomWordsRequested",
      "type": "event"
    },
    {
      "inputs": [],
      "name": "callbackGasLimit",
      "outputs": [
        {
          "internalType": "uint32",
          "name": "",
          "type": "uint32"
        }
      ],
      "stateMutability": "view",
      "type": "function"
    },
    {
      "inputs": [
        {
          "internalType": "uint256",
          "name": "_requestId",
          "type": "uint256"
        }
      ],
      "name": "getRandomNumber",
      "outputs": [
        {
          "internalType": "uint256",
          "name": "",
          "type": "uint256"
        }
      ],
      "stateMutability": "view",
      "type": "function"
    },
    {
      "inputs": [
        {
          "internalType": "address",
          "name": "_contractAddress",
          "type": "address"
        }
      ],
      "name": "isApprovedContract",
      "outputs": [
        {
          "internalType": "bool",
          "name": "",
          "type": "bool"
        }
      ],
      "stateMutability": "view",
      "type": "function"
    },
    {
      "inputs": [],
      "name": "keyHash",
      "outputs": [
        {
          "internalType": "bytes32",
          "name": "",
          "type": "bytes32"
        }
      ],
      "stateMutability": "view",
      "type": "function"
    },
    {
      "inputs": [],
      "name": "numWords",
      "outputs": [
        {
          "internalType": "uint32",
          "name": "",
          "type": "uint32"
        }
      ],
      "stateMutability": "view",
      "type": "function"
    },
    {
      "inputs": [],
      "name": "owner",
      "outputs": [
        {
          "internalType": "address",
          "name": "",
          "type": "address"
        }
      ],
      "stateMutability": "view",
      "type": "function"
    },
    {
      "inputs": [
        {
          "internalType": "uint256",
          "name": "requestId",
          "type": "uint256"
        },
        {
          "internalType": "uint256[]",
          "name": "randomWords",
          "type": "uint256[]"
        }
      ],
      "name": "rawFulfillRandomWords",
      "outputs": [],
      "stateMutability": "nonpayable",
      "type": "function"
    },
    {
      "inputs": [
        {
          "internalType": "address",
          "name": "_contractAddress",
          "type": "address"
        }
      ],
      "name": "removeApprovedContract",
      "outputs": [],
      "stateMutability": "nonpayable",
      "type": "function"
    },
    {
      "inputs": [],
      "name": "renounceOwnership",
      "outputs": [],
      "stateMutability": "nonpayable",
      "type": "function"
    },
    {
      "inputs": [],
      "name": "requestConfirmations",
      "outputs": [
        {
          "internalType": "uint16",
          "name": "",
          "type": "uint16"
        }
      ],
      "stateMutability": "view",
      "type": "function"
    },
    {
      "inputs": [],
      "name": "requestId",
      "outputs": [
        {
          "internalType": "uint256",
          "name": "",
          "type": "uint256"
        }
      ],
      "stateMutability": "view",
      "type": "function"
    },
    {
      "inputs": [],
      "name": "requestRandomWords",
      "outputs": [
        {
          "internalType": "uint256",
          "name": "",
          "type": "uint256"
        }
      ],
      "stateMutability": "nonpayable",
      "type": "function"
    },
    {
      "inputs": [
        {
          "internalType": "address",
          "name": "_contractAddress",
          "type": "address"
        }
      ],
      "name": "setApprovedContract",
      "outputs": [],
      "stateMutability": "nonpayable",
      "type": "function"
    },
    {
      "inputs": [],
      "name": "subscriptionId",
      "outputs": [
        {
          "internalType": "uint64",
          "name": "",
          "type": "uint64"
        }
      ],
      "stateMutability": "view",
      "type": "function"
    },
    {
      "inputs": [
        {
          "internalType": "address",
          "name": "newOwner",
          "type": "address"
        }
      ],
      "name": "transferOwnership",
      "outputs": [],
      "stateMutability": "nonpayable",
      "type": "function"
    },
    {
      "inputs": [],
      "name": "vrfCoordinator",
      "outputs": [
        {
          "internalType": "contract VRFCoordinatorV2Interface",
          "name": "",
          "type": "address"
        }
      ],
      "stateMutability": "view",
      "type": "function"
    }
  ],
  "transactionHash": "0x36bd2eed6e7e7618b2c9941aa6d9592ae0fb80191aca93ce1ff71b4b01821613",
  "args": [
    "0x7a1BaC17Ccc5b313516C5E16fb24f7659aA5ebed",
    "0x4b09e658ed251bcafeebbc69400383d49f344ace09b9576fe248bb02c003fe9f",
    "5331"
  ],
  "numDeployments": 1,
  "solcInputHash": "cca06bca670996aaa2ec7a7311d1f4df",
  "bytecode": "0x60a0604052620f4240600660086101000a81548163ffffffff021916908363ffffffff16021790555060036006600c6101000a81548161ffff021916908361ffff16021790555060016006600e6101000a81548163ffffffff021916908363ffffffff1602179055503480156200007557600080fd5b506040516200139f3803806200139f83398181016040528101906200009b91906200027f565b828073ffffffffffffffffffffffffffffffffffffffff1660808173ffffffffffffffffffffffffffffffffffffffff1660601b8152505050620000f4620000e86200016e60201b60201c565b6200017660201b60201c565b82600460006101000a81548173ffffffffffffffffffffffffffffffffffffffff021916908373ffffffffffffffffffffffffffffffffffffffff1602179055508160058190555080600660006101000a81548167ffffffffffffffff021916908367ffffffffffffffff16021790555050505062000380565b600033905090565b60008060009054906101000a900473ffffffffffffffffffffffffffffffffffffffff169050816000806101000a81548173ffffffffffffffffffffffffffffffffffffffff021916908373ffffffffffffffffffffffffffffffffffffffff1602179055508173ffffffffffffffffffffffffffffffffffffffff168173ffffffffffffffffffffffffffffffffffffffff167f8be0079c531659141344cd1fd0a4f28419497f9722a3daafe3b4186f6b6457e060405160405180910390a35050565b6000815190506200024b8162000332565b92915050565b60008151905062000262816200034c565b92915050565b600081519050620002798162000366565b92915050565b6000806000606084860312156200029b576200029a6200032d565b5b6000620002ab868287016200023a565b9350506020620002be8682870162000251565b9250506040620002d18682870162000268565b9150509250925092565b6000620002e882620002f9565b9050919050565b6000819050919050565b600073ffffffffffffffffffffffffffffffffffffffff82169050919050565b600067ffffffffffffffff82169050919050565b600080fd5b6200033d81620002db565b81146200034957600080fd5b50565b6200035781620002ef565b81146200036357600080fd5b50565b620003718162000319565b81146200037d57600080fd5b50565b60805160601c610ff9620003a66000396000818161030e01526103620152610ff96000f3fe608060405234801561001057600080fd5b50600436106100ff5760003560e01c80637ccfd7fc11610097578063b0fb162f11610066578063b0fb162f14610264578063b37217a414610282578063e0c86289146102b2578063f2fde38b146102d0576100ff565b80637ccfd7fc146101ee5780638da5cb5b1461020c5780639eea22791461022a578063a3e56fa814610246576100ff565b806361728f39116100d357806361728f391461017a57806369242dc6146101985780636eedadca146101b4578063715018a6146101e4576100ff565b80626d6cae1461010457806309c1ba2e146101225780631fe543e31461014057806324f746971461015c575b600080fd5b61010c6102ec565b6040516101199190610cfc565b60405180910390f35b61012a6102f2565b6040516101379190610d32565b60405180910390f35b61015a60048036038101906101559190610a9f565b61030c565b005b6101646103cc565b6040516101719190610d17565b60405180910390f35b6101826103e2565b60405161018f9190610c18565b60405180910390f35b6101b260048036038101906101ad9190610a18565b6103e8565b005b6101ce60048036038101906101c99190610a18565b61044a565b6040516101db9190610bfd565b60405180910390f35b6101ec6104a0565b005b6101f66104b4565b6040516102039190610d17565b60405180910390f35b6102146104ca565b6040516102219190610bb9565b60405180910390f35b610244600480360381019061023f9190610a18565b6104f3565b005b61024e610556565b60405161025b9190610c86565b60405180910390f35b61026c61057c565b6040516102799190610ce1565b60405180910390f35b61029c60048036038101906102979190610a45565b610590565b6040516102a99190610cfc565b60405180910390f35b6102ba6105ad565b6040516102c79190610cfc565b60405180910390f35b6102ea60048036038101906102e59190610a18565b610736565b005b60035481565b600660009054906101000a900467ffffffffffffffff1681565b7f000000000000000000000000000000000000000000000000000000000000000073ffffffffffffffffffffffffffffffffffffffff163373ffffffffffffffffffffffffffffffffffffffff16146103be57337f00000000000000000000000000000000000000000000000000000000000000006040517f1cf993f40000000000000000000000000000000000000000000000000000000081526004016103b5929190610bd4565b60405180910390fd5b6103c882826107ba565b5050565b600660089054906101000a900463ffffffff1681565b60055481565b6103f06107f1565b60018060008373ffffffffffffffffffffffffffffffffffffffff1673ffffffffffffffffffffffffffffffffffffffff16815260200190815260200160002060006101000a81548160ff02191690831515021790555050565b6000600160008373ffffffffffffffffffffffffffffffffffffffff1673ffffffffffffffffffffffffffffffffffffffff16815260200190815260200160002060009054906101000a900460ff169050919050565b6104a86107f1565b6104b2600061086f565b565b6006600e9054906101000a900463ffffffff1681565b60008060009054906101000a900473ffffffffffffffffffffffffffffffffffffffff16905090565b6104fb6107f1565b6000600160008373ffffffffffffffffffffffffffffffffffffffff1673ffffffffffffffffffffffffffffffffffffffff16815260200190815260200160002060006101000a81548160ff02191690831515021790555050565b600460009054906101000a900473ffffffffffffffffffffffffffffffffffffffff1681565b6006600c9054906101000a900461ffff1681565b600060026000838152602001908152602001600020549050919050565b60006105b83361044a565b6105ee576040517fb4ec0eb100000000000000000000000000000000000000000000000000000000815260040160405180910390fd5b600460009054906101000a900473ffffffffffffffffffffffffffffffffffffffff1673ffffffffffffffffffffffffffffffffffffffff16635d3b1d30600554600660009054906101000a900467ffffffffffffffff166006600c9054906101000a900461ffff16600660089054906101000a900463ffffffff166006600e9054906101000a900463ffffffff166040518663ffffffff1660e01b815260040161069d959493929190610c33565b602060405180830381600087803b1580156106b757600080fd5b505af11580156106cb573d6000803e3d6000fd5b505050506040513d601f19601f820116820180604052508101906106ef9190610a72565b6003819055507f7fcb39adb5b831fa03838de8ac6af690f48e3339ee8300eff17b1cd8035054df6003546040516107269190610cfc565b60405180910390a1600354905090565b61073e6107f1565b600073ffffffffffffffffffffffffffffffffffffffff168173ffffffffffffffffffffffffffffffffffffffff1614156107ae576040517f08c379a00000000000000000000000000000000000000000000000000000000081526004016107a590610ca1565b60405180910390fd5b6107b78161086f565b50565b806000815181106107ce576107cd610e9a565b5b602002602001015160026000848152602001908152602001600020819055505050565b6107f9610933565b73ffffffffffffffffffffffffffffffffffffffff166108176104ca565b73ffffffffffffffffffffffffffffffffffffffff161461086d576040517f08c379a000000000000000000000000000000000000000000000000000000000815260040161086490610cc1565b60405180910390fd5b565b60008060009054906101000a900473ffffffffffffffffffffffffffffffffffffffff169050816000806101000a81548173ffffffffffffffffffffffffffffffffffffffff021916908373ffffffffffffffffffffffffffffffffffffffff1602179055508173ffffffffffffffffffffffffffffffffffffffff168173ffffffffffffffffffffffffffffffffffffffff167f8be0079c531659141344cd1fd0a4f28419497f9722a3daafe3b4186f6b6457e060405160405180910390a35050565b600033905090565b600061094e61094984610d72565b610d4d565b9050808382526020820190508285602086028201111561097157610970610efd565b5b60005b858110156109a1578161098788826109ee565b845260208401935060208301925050600181019050610974565b5050509392505050565b6000813590506109ba81610f95565b92915050565b600082601f8301126109d5576109d4610ef8565b5b81356109e584826020860161093b565b91505092915050565b6000813590506109fd81610fac565b92915050565b600081519050610a1281610fac565b92915050565b600060208284031215610a2e57610a2d610f07565b5b6000610a3c848285016109ab565b91505092915050565b600060208284031215610a5b57610a5a610f07565b5b6000610a69848285016109ee565b91505092915050565b600060208284031215610a8857610a87610f07565b5b6000610a9684828501610a03565b91505092915050565b60008060408385031215610ab657610ab5610f07565b5b6000610ac4858286016109ee565b925050602083013567ffffffffffffffff811115610ae557610ae4610f02565b5b610af1858286016109c0565b9150509250929050565b610b0481610daf565b82525050565b610b1381610dc1565b82525050565b610b2281610dcd565b82525050565b610b3181610e33565b82525050565b6000610b44602683610d9e565b9150610b4f82610f1d565b604082019050919050565b6000610b67602083610d9e565b9150610b7282610f6c565b602082019050919050565b610b8681610dd7565b82525050565b610b9581610e05565b82525050565b610ba481610e0f565b82525050565b610bb381610e1f565b82525050565b6000602082019050610bce6000830184610afb565b92915050565b6000604082019050610be96000830185610afb565b610bf66020830184610afb565b9392505050565b6000602082019050610c126000830184610b0a565b92915050565b6000602082019050610c2d6000830184610b19565b92915050565b600060a082019050610c486000830188610b19565b610c556020830187610baa565b610c626040830186610b7d565b610c6f6060830185610b9b565b610c7c6080830184610b9b565b9695505050505050565b6000602082019050610c9b6000830184610b28565b92915050565b60006020820190508181036000830152610cba81610b37565b9050919050565b60006020820190508181036000830152610cda81610b5a565b9050919050565b6000602082019050610cf66000830184610b7d565b92915050565b6000602082019050610d116000830184610b8c565b92915050565b6000602082019050610d2c6000830184610b9b565b92915050565b6000602082019050610d476000830184610baa565b92915050565b6000610d57610d68565b9050610d638282610e69565b919050565b6000604051905090565b600067ffffffffffffffff821115610d8d57610d8c610ec9565b5b602082029050602081019050919050565b600082825260208201905092915050565b6000610dba82610de5565b9050919050565b60008115159050919050565b6000819050919050565b600061ffff82169050919050565b600073ffffffffffffffffffffffffffffffffffffffff82169050919050565b6000819050919050565b600063ffffffff82169050919050565b600067ffffffffffffffff82169050919050565b6000610e3e82610e45565b9050919050565b6000610e5082610e57565b9050919050565b6000610e6282610de5565b9050919050565b610e7282610f0c565b810181811067ffffffffffffffff82111715610e9157610e90610ec9565b5b80604052505050565b7f4e487b7100000000000000000000000000000000000000000000000000000000600052603260045260246000fd5b7f4e487b7100000000000000000000000000000000000000000000000000000000600052604160045260246000fd5b600080fd5b600080fd5b600080fd5b600080fd5b6000601f19601f8301169050919050565b7f4f776e61626c653a206e6577206f776e657220697320746865207a65726f206160008201527f6464726573730000000000000000000000000000000000000000000000000000602082015250565b7f4f776e61626c653a2063616c6c6572206973206e6f7420746865206f776e6572600082015250565b610f9e81610daf565b8114610fa957600080fd5b50565b610fb581610e05565b8114610fc057600080fd5b5056fea2646970667358221220878d3d14248cd41a634a0f6888758e0ca9c49c0b4036edd102cb108281e778bb64736f6c63430008070033",
  "devdoc": {
    "kind": "dev",
    "methods": {
      "owner()": {
        "details": "Returns the address of the current owner."
      },
      "renounceOwnership()": {
        "details": "Leaves the contract without owner. It will not be possible to call `onlyOwner` functions anymore. Can only be called by the current owner. NOTE: Renouncing ownership will leave the contract without an owner, thereby removing any functionality that is only available to the owner."
      },
      "transferOwnership(address)": {
        "details": "Transfers ownership of the contract to a new account (`newOwner`). Can only be called by the current owner."
      }
    },
    "version": 1
  },
  "userdoc": {
    "kind": "user",
    "methods": {},
    "version": 1
  },
  "storageLayout": {
    "storage": [
      {
        "astId": 1447,
        "contract": "contracts/RandomNumberGenerator.sol:RandomNumberGenerator",
        "label": "_owner",
        "offset": 0,
        "slot": "0",
        "type": "t_address"
      },
      {
        "astId": 2351,
        "contract": "contracts/RandomNumberGenerator.sol:RandomNumberGenerator",
        "label": "approvedContracts",
        "offset": 0,
        "slot": "1",
        "type": "t_mapping(t_address,t_bool)"
      },
      {
        "astId": 2355,
        "contract": "contracts/RandomNumberGenerator.sol:RandomNumberGenerator",
        "label": "requestIdToRandomWords",
        "offset": 0,
        "slot": "2",
        "type": "t_mapping(t_uint256,t_uint256)"
      },
      {
        "astId": 2357,
        "contract": "contracts/RandomNumberGenerator.sol:RandomNumberGenerator",
        "label": "requestId",
        "offset": 0,
        "slot": "3",
        "type": "t_uint256"
      },
      {
        "astId": 2360,
        "contract": "contracts/RandomNumberGenerator.sol:RandomNumberGenerator",
        "label": "vrfCoordinator",
        "offset": 0,
        "slot": "4",
        "type": "t_contract(VRFCoordinatorV2Interface)370"
      },
      {
        "astId": 2362,
        "contract": "contracts/RandomNumberGenerator.sol:RandomNumberGenerator",
        "label": "keyHash",
        "offset": 0,
        "slot": "5",
        "type": "t_bytes32"
      },
      {
        "astId": 2364,
        "contract": "contracts/RandomNumberGenerator.sol:RandomNumberGenerator",
        "label": "subscriptionId",
        "offset": 0,
        "slot": "6",
        "type": "t_uint64"
      },
      {
        "astId": 2367,
        "contract": "contracts/RandomNumberGenerator.sol:RandomNumberGenerator",
        "label": "callbackGasLimit",
        "offset": 8,
        "slot": "6",
        "type": "t_uint32"
      },
      {
        "astId": 2370,
        "contract": "contracts/RandomNumberGenerator.sol:RandomNumberGenerator",
        "label": "requestConfirmations",
        "offset": 12,
        "slot": "6",
        "type": "t_uint16"
      },
      {
        "astId": 2373,
        "contract": "contracts/RandomNumberGenerator.sol:RandomNumberGenerator",
        "label": "numWords",
        "offset": 14,
        "slot": "6",
        "type": "t_uint32"
      }
    ],
    "types": {
      "t_address": {
        "encoding": "inplace",
        "label": "address",
        "numberOfBytes": "20"
      },
      "t_bool": {
        "encoding": "inplace",
        "label": "bool",
        "numberOfBytes": "1"
      },
      "t_bytes32": {
        "encoding": "inplace",
        "label": "bytes32",
        "numberOfBytes": "32"
      },
      "t_contract(VRFCoordinatorV2Interface)370": {
        "encoding": "inplace",
        "label": "contract VRFCoordinatorV2Interface",
        "numberOfBytes": "20"
      },
      "t_mapping(t_address,t_bool)": {
        "encoding": "mapping",
        "key": "t_address",
        "label": "mapping(address => bool)",
        "numberOfBytes": "32",
        "value": "t_bool"
      },
      "t_mapping(t_uint256,t_uint256)": {
        "encoding": "mapping",
        "key": "t_uint256",
        "label": "mapping(uint256 => uint256)",
        "numberOfBytes": "32",
        "value": "t_uint256"
      },
      "t_uint16": {
        "encoding": "inplace",
        "label": "uint16",
        "numberOfBytes": "2"
      },
      "t_uint256": {
        "encoding": "inplace",
        "label": "uint256",
        "numberOfBytes": "32"
      },
      "t_uint32": {
        "encoding": "inplace",
        "label": "uint32",
        "numberOfBytes": "4"
      },
      "t_uint64": {
        "encoding": "inplace",
        "label": "uint64",
        "numberOfBytes": "8"
      }
    }
  }
}